:020000040800F2
:1000000024100020FD030008F1030008F10300089C
:10001000F1030008F1030008F103000880B500AF08
:10002000054B00221A70012000F0C6F8034B044A69
:100030001A6000BF80BD00BF080000200C00002037
:100040004500000880B400AF044B01221A70044B35
:10005000044A1A6000BFBD4680BC704708000020FB
:100060000C0000204500000880B400AF044B0222C1
:100070001A70044B044A1A6000BFBD4680BC70472A
:10008000080000200C0000206900000880B400AFC8
:10009000044B03221A70044B044A1A6000BFBD4689
:1000A00080BC7047080000200C00002045000008BC
:1000B00080B500AF002000F07FF8024B024A1A60C2
:1000C00000BF80BD0C0000206900000880B500AFB3
:1000D000012000F071F8024B024A1A6000BF80BD97
:1000E0000C0000208D00000880B400AF044B0022FB
:1000F0001A70044B044A1A6000BFBD4680BC7047AA
:1001000014000020100000200D01000880B400AF92
:10011000044B00221A70044B044A1A6000BFBD460B
:1001200080BC704714000020100000200D01000862
:1001300080B500AF074B00221A70FFF7B9FF0648E1
:1001400000F01EF8FFF7C2FF044B054A1A6000BF1B
:1001500080BD00BF14000020D0121300100000204A
:100160000D01000880B400AF034B044A1A6000BFC1
:10017000BD4680BC704700BF100000203101000860
:1001800080B483B000AF786002E07B68013B7B60A5
:100190007B68002BF9D100BF0C37BD4680BC70478F
:1001A00080B400AF034B1B68DBB21846BD4680BC71
:1001B000704700BF0808014080B483B000AF78608A
:1001C0007B68012B06D10A4B1B68094A43F4005394
:1001D000136008E07B68002B05D1054B1B68044ABF
:1001E00023F40053136000BF0C37BD4680BC70473A
:1001F0000C08014080B400AF0F4B1B680E4A43F05F
:10020000040313600D4B1B680C4A23F47003136046
:100210000A4B0A4A1B681360094B1B68084A23F4FF
:1002200070031360064B1B68054A43F022331360CA
:1002300000BFBD4680BC7047181002400008014056
:100240000408014080B400AF074B084A1A60084B0D
:10025000084A1A60084B094A1A60094B094A1A6091
:1002600000BFBD4680BC70471C0000206D03000825
:1002700018000020C102000810000020E90000085A
:100280000C0000201D00000880B500AFFFF7B2FF92
:10029000FFF7D8FF064B1B689847064B1B6898472B
:1002A000054B1B689847054B1B689847F2E700BF52
:1002B0001C00002018000020100000200C0000206E
:1002C00080B400AF044B00221A70044B044A1A6039
:1002D00000BFBD4680BC70471600002018000020FB
:1002E000E502000880B400AF044B00221A70044BF2
:1002F000044A1A6000BFBD4680BC7047160000204B
:1003000018000020E502000880B500AF074B02226C
:100310001A70074B1A68074B1B689A4201DDFFF7FA
:1003200021FF054B054A1A6000BF80BD1600002062
:10033000040000200000002018000020E502000852
:1003400080B483B000AF7860054A7B681360054BCA
:10035000054A1A6000BF0C37BD4680BC704700BF1D
:1003600004000020180000200903000880B400AF3A
:10037000044B00221A70044B044A1A6000BFBD46A9
:1003800080BC7047150000201C000020910300086D
:1003900080B500AF094B01221A70FFF701FF034639
:1003A0001A46074B1A60064B1B681846FFF7C8FF32
:1003B000044B054A1A6000BF80BD00BF1500002035
:1003C000200000201C000020CD03000880B400AFF6
:1003D000044B02221A70044B044A1A6000BFBD4647
:1003E00080BC7047150000201C000020910300080D
:1003F00080B500AF00F002F800BF80BD80B586B0C8
:1004000000AF1A4A1A4BD31ABB601A4A1A4BD31AB6
:100410007B601A4B3B61164BFB6000237B610AE05B
:100420003A69531C3B61FB68591CF96012781A70D9
:100430007B6901337B617B69BA689A42F0D80E4BC5
:10044000FB6000237B6107E0FB685A1CFA60002216
:100450001A707B6901337B617B697A689A42F3D8B1
:10046000FFF712FF00BF1837BD4680BD0400002013
:100470000000002008000020040000208004000884
:040480001400000064
:04000005080003FDEF
:00000001FF
